{
  "_format": "hh-sol-artifact-1",
  "contractName": "TokenizedBallot",
  "sourceName": "contracts/TokenizedBallot.sol",
  "abi": [
    {
      "inputs": [
        {
          "internalType": "bytes32[]",
          "name": "proposalNames",
          "type": "bytes32[]"
        },
        {
          "internalType": "address",
          "name": "_tokenContract",
          "type": "address"
        },
        {
          "internalType": "uint256",
          "name": "_targetBlockNumber",
          "type": "uint256"
        }
      ],
      "stateMutability": "nonpayable",
      "type": "constructor"
    },
    {
      "inputs": [
        {
          "internalType": "uint256",
          "name": "",
          "type": "uint256"
        }
      ],
      "name": "proposals",
      "outputs": [
        {
          "internalType": "bytes32",
          "name": "name",
          "type": "bytes32"
        },
        {
          "internalType": "uint256",
          "name": "voteCount",
          "type": "uint256"
        }
      ],
      "stateMutability": "view",
      "type": "function"
    },
    {
      "inputs": [],
      "name": "targetBlockNumber",
      "outputs": [
        {
          "internalType": "uint256",
          "name": "",
          "type": "uint256"
        }
      ],
      "stateMutability": "view",
      "type": "function"
    },
    {
      "inputs": [],
      "name": "tokenContract",
      "outputs": [
        {
          "internalType": "contract IMyToken",
          "name": "",
          "type": "address"
        }
      ],
      "stateMutability": "view",
      "type": "function"
    },
    {
      "inputs": [
        {
          "internalType": "uint256",
          "name": "proposal",
          "type": "uint256"
        },
        {
          "internalType": "uint256",
          "name": "amount",
          "type": "uint256"
        }
      ],
      "name": "vote",
      "outputs": [],
      "stateMutability": "nonpayable",
      "type": "function"
    },
    {
      "inputs": [
        {
          "internalType": "address",
          "name": "account",
          "type": "address"
        }
      ],
      "name": "votingPower",
      "outputs": [
        {
          "internalType": "uint256",
          "name": "",
          "type": "uint256"
        }
      ],
      "stateMutability": "view",
      "type": "function"
    },
    {
      "inputs": [
        {
          "internalType": "address",
          "name": "",
          "type": "address"
        }
      ],
      "name": "votingPowerSpent",
      "outputs": [
        {
          "internalType": "uint256",
          "name": "",
          "type": "uint256"
        }
      ],
      "stateMutability": "view",
      "type": "function"
    },
    {
      "inputs": [],
      "name": "winnerName",
      "outputs": [
        {
          "internalType": "bytes32",
          "name": "winnerName_",
          "type": "bytes32"
        }
      ],
      "stateMutability": "view",
      "type": "function"
    },
    {
      "inputs": [],
      "name": "winningProposal",
      "outputs": [
        {
          "internalType": "uint256",
          "name": "winningProposal_",
          "type": "uint256"
        }
      ],
      "stateMutability": "view",
      "type": "function"
    }
  ],
  "bytecode": "0x60806040523480156200001157600080fd5b5060405162000e0838038062000e08833981810160405281019062000037919062000384565b8060028190555081600160006101000a81548173ffffffffffffffffffffffffffffffffffffffff021916908373ffffffffffffffffffffffffffffffffffffffff16021790555060005b8351811015620001165760006040518060400160405280868481518110620000af57620000ae620003ff565b5b60200260200101518152602001600081525090806001815401808255809150506001900390600052602060002090600202016000909190919091506000820151816000015560208201518160010155505080806200010d906200045d565b91505062000082565b50505050620004aa565b6000604051905090565b600080fd5b600080fd5b600080fd5b6000601f19601f8301169050919050565b7f4e487b7100000000000000000000000000000000000000000000000000000000600052604160045260246000fd5b620001848262000139565b810181811067ffffffffffffffff82111715620001a657620001a56200014a565b5b80604052505050565b6000620001bb62000120565b9050620001c9828262000179565b919050565b600067ffffffffffffffff821115620001ec57620001eb6200014a565b5b602082029050602081019050919050565b600080fd5b6000819050919050565b620002178162000202565b81146200022357600080fd5b50565b60008151905062000237816200020c565b92915050565b6000620002546200024e84620001ce565b620001af565b905080838252602082019050602084028301858111156200027a5762000279620001fd565b5b835b81811015620002a7578062000292888262000226565b8452602084019350506020810190506200027c565b5050509392505050565b600082601f830112620002c957620002c862000134565b5b8151620002db8482602086016200023d565b91505092915050565b600073ffffffffffffffffffffffffffffffffffffffff82169050919050565b60006200031182620002e4565b9050919050565b620003238162000304565b81146200032f57600080fd5b50565b600081519050620003438162000318565b92915050565b6000819050919050565b6200035e8162000349565b81146200036a57600080fd5b50565b6000815190506200037e8162000353565b92915050565b600080600060608486031215620003a0576200039f6200012a565b5b600084015167ffffffffffffffff811115620003c157620003c06200012f565b5b620003cf86828701620002b1565b9350506020620003e28682870162000332565b9250506040620003f5868287016200036d565b9150509250925092565b7f4e487b7100000000000000000000000000000000000000000000000000000000600052603260045260246000fd5b7f4e487b7100000000000000000000000000000000000000000000000000000000600052601160045260246000fd5b60006200046a8262000349565b91507fffffffffffffffffffffffffffffffffffffffffffffffffffffffffffffffff82036200049f576200049e6200042e565b5b600182019050919050565b61094e80620004ba6000396000f3fe608060405234801561001057600080fd5b50600436106100885760003560e01c8063a72003511161005b578063a720035114610118578063b384abef14610148578063c07473f614610164578063e2ba53f01461019457610088565b8063013cf08b1461008d5780632a8cd29e146100be57806355a373d6146100dc578063609ff1bd146100fa575b600080fd5b6100a760048036038101906100a291906104f4565b6101b2565b6040516100b5929190610549565b60405180910390f35b6100c66101e6565b6040516100d39190610572565b60405180910390f35b6100e46101ec565b6040516100f1919061060c565b60405180910390f35b610102610212565b60405161010f9190610572565b60405180910390f35b610132600480360381019061012d9190610665565b61029a565b60405161013f9190610572565b60405180910390f35b610162600480360381019061015d9190610692565b6102b2565b005b61017e60048036038101906101799190610665565b610393565b60405161018b9190610572565b60405180910390f35b61019c610486565b6040516101a991906106d2565b60405180910390f35b600081815481106101c257600080fd5b90600052602060002090600202016000915090508060000154908060010154905082565b60025481565b600160009054906101000a900473ffffffffffffffffffffffffffffffffffffffff1681565b6000806000905060005b60008054905081101561029557816000828154811061023e5761023d6106ed565b5b9060005260206000209060020201600101541115610282576000818154811061026a576102696106ed565b5b90600052602060002090600202016001015491508092505b808061028d9061074b565b91505061021c565b505090565b60036020528060005260406000206000915090505481565b806102bc33610393565b10156102fd576040517f08c379a00000000000000000000000000000000000000000000000000000000081526004016102f490610816565b60405180910390fd5b80600360003373ffffffffffffffffffffffffffffffffffffffff1673ffffffffffffffffffffffffffffffffffffffff168152602001908152602001600020600082825461034c9190610836565b925050819055508060008381548110610368576103676106ed565b5b906000526020600020906002020160010160008282546103889190610836565b925050819055505050565b6000600360008373ffffffffffffffffffffffffffffffffffffffff1673ffffffffffffffffffffffffffffffffffffffff16815260200190815260200160002054600160009054906101000a900473ffffffffffffffffffffffffffffffffffffffff1673ffffffffffffffffffffffffffffffffffffffff16633a46b1a8846002546040518363ffffffff1660e01b8152600401610434929190610879565b602060405180830381865afa158015610451573d6000803e3d6000fd5b505050506040513d601f19601f8201168201806040525081019061047591906108b7565b61047f91906108e4565b9050919050565b600080610491610212565b815481106104a2576104a16106ed565b5b906000526020600020906002020160000154905090565b600080fd5b6000819050919050565b6104d1816104be565b81146104dc57600080fd5b50565b6000813590506104ee816104c8565b92915050565b60006020828403121561050a576105096104b9565b5b6000610518848285016104df565b91505092915050565b6000819050919050565b61053481610521565b82525050565b610543816104be565b82525050565b600060408201905061055e600083018561052b565b61056b602083018461053a565b9392505050565b6000602082019050610587600083018461053a565b92915050565b600073ffffffffffffffffffffffffffffffffffffffff82169050919050565b6000819050919050565b60006105d26105cd6105c88461058d565b6105ad565b61058d565b9050919050565b60006105e4826105b7565b9050919050565b60006105f6826105d9565b9050919050565b610606816105eb565b82525050565b600060208201905061062160008301846105fd565b92915050565b60006106328261058d565b9050919050565b61064281610627565b811461064d57600080fd5b50565b60008135905061065f81610639565b92915050565b60006020828403121561067b5761067a6104b9565b5b600061068984828501610650565b91505092915050565b600080604083850312156106a9576106a86104b9565b5b60006106b7858286016104df565b92505060206106c8858286016104df565b9150509250929050565b60006020820190506106e7600083018461052b565b92915050565b7f4e487b7100000000000000000000000000000000000000000000000000000000600052603260045260246000fd5b7f4e487b7100000000000000000000000000000000000000000000000000000000600052601160045260246000fd5b6000610756826104be565b91507fffffffffffffffffffffffffffffffffffffffffffffffffffffffffffffffff82036107885761078761071c565b5b600182019050919050565b600082825260208201905092915050565b7f546f6b656e697a656442616c6c6f743a20747279696e6720746f20766f74652060008201527f6d6f7265207468616e20616c6c6f776564000000000000000000000000000000602082015250565b6000610800603183610793565b915061080b826107a4565b604082019050919050565b6000602082019050818103600083015261082f816107f3565b9050919050565b6000610841826104be565b915061084c836104be565b92508282019050808211156108645761086361071c565b5b92915050565b61087381610627565b82525050565b600060408201905061088e600083018561086a565b61089b602083018461053a565b9392505050565b6000815190506108b1816104c8565b92915050565b6000602082840312156108cd576108cc6104b9565b5b60006108db848285016108a2565b91505092915050565b60006108ef826104be565b91506108fa836104be565b92508282039050818111156109125761091161071c565b5b9291505056fea2646970667358221220afde1b8e6fbada46a11f4f137f2c0a64a2eaa10155aee2898cf7155fc23f0b4164736f6c63430008110033",
  "linkReferences": {},
  "deployedLinkReferences": {}
}